:020000040000FA
:02000000E12CF1
:040002000034003492
:0800080080314E018C1E2328FB
:100010008C12F308031DF303400139140130A802C8
:10002000031D23280430A800AB0A3D080319192832
:10003000BD032908031D1F282A080319232801309E
:10004000AA02031CA9034E01101C362810104001FF
:10005000420803193228410803300319C100C10BBB
:100060003228C2034C0803193628CC034E018F1ED8
:10007000E62B42011D1D3E281908E62B9D1C432836
:100080001D121D16E62B2008031D4C281908533A93
:10009000031DE42BA00AE62B2008013A031D562875
:1000A00019086D3A031DE42BA00AE62B2008023A3A
:1000B000031D60281908613A031DE42BA00AE62BF2
:1000C0002008033A031D6A281908733A031DE42B1C
:1000D000A00AE62B2008043A031D74281908683A80
:1000E000031DE42BA00AE62B2008053A031D8028F7
:1000F00019083F3A031DE42BA00A3B30A100E62B70
:100100002008063A031D89281908A200A107A00AA1
:10011000E62B2008073A031DDB281908A300A107D6
:10012000A00A2308031D9628A401E62B2308013A00
:10013000031D9C28A401E62B2308033A031DA328D2
:100140000A30A400E62B2308053A031DAA28023032
:10015000A400E62B2308063A031DB1280230A400B0
:10016000E62B2308073A031DB8280330A400E62B2A
:100170002308093A031DBF280430A400E62B2308F6
:100180000A3A031DC6280230A400E62B23080B3AC6
:10019000031DCD280230A400E62B23080C3A031DD2
:1001A000D328A401E62B2308DE3A031DDA28043005
:1001B000A400E62BE42B2008083A031DE4281908C4
:1001C000A500A107A00AE62B2008093A031DF5287F
:1001D0001908A600A107A00A25082C06031DE62B76
:1001E00026082B06031DE62BE42B20080A3A031DE4
:1001F0000A292408031909292330870020302407FD
:100200008600860319088100A107A40BE62BA00A2B
:10021000E62BA00A20080B3A031DE42B1908A107BE
:100220002108031DE42B2308DE3A031D4429250879
:10023000AD3A031D44292608BE3A031D4429233044
:100240008700203086001600A23A031D44291600BC
:10025000D63A031D44291600293A031D44291600E5
:10026000EF3A031D4429233085007030840080302C
:10027000AE00FF301A00AE0B392971144001AC01F9
:10028000BB01BC01C00142012508033C031CE42B57
:100290000319E42B2308053A031D5729233087004F
:1002A000203086001600CD001600CC007116711E9D
:1002B0008B2925084C06031D8B2926084D06031D96
:1002C0008B29400149080339031D68294308CA00E6
:1002D00049140D30C300C201C101C50142012330E0
:1002E000870070308600811B8B2981174001063002
:1002F000CA0001080639043A0319CA0A0230AC00E0
:10030000A901AA01FF30BB000030BC00C0004201BF
:100310007114F11471152330870070308600221C8F
:10032000A029011CA029011040010230AC00A90144
:10033000AA01FF30BB000030BC00C00042017114B4
:100340002508023A031D402A2608FF3A031D402AC9
:100350002308013A031DB7294E01191AB729420192
:10036000A701A8010230AA00F1154E011916420199
:100370002308033A031DBE29903104282308063AB6
:10038000031DD629233087002030860016002B0657
:10039000031DD62916002C06031DD62923308700FD
:1003A00070308600011ED629011271142308093A03
:1003B000031D052A23308700203086002330850066
:1003C00075308400840A00090106031D052A840390
:1003D000860A00090106031D052A14002B06031DC9
:1003E000052A14002C06031D052A233087007030CF
:1003F00086008119052A8115233087007530860013
:10040000FD301E0000308100711423080A3A031DDC
:100410001D2A233087002030860016002B06031D7E
:100420001D2A16002C06031D1D2A2330870070305C
:100430008600011F052A0113711423080B3A031DBE
:10044000402A233087002030860016002B06031D2B
:10045000402A16002C06031D402A233087008E30C8
:1004600086001600FD3A031D402A01090319402A9F
:100470002330870070308600811E402A811271145B
:100480002330870070308600811B9E2A02302502AF
:10049000031C6D2A031D502A40302602031C6D2ABE
:1004A00002302502031C5A2A031D6D2A80302602C1
:1004B00003186D2A2330870070308600011A6C2AD9
:1004C000811E6C2A8116233087008E308600250914
:1004D0001E00260981007114812A02302502031CA6
:1004E0009E2A031D772AE0302602031C9E2A023032
:1004F0002502031C812A031D9E2AFF3026020318B1
:100500009E2A233087007030860081174001063014
:10051000C30001080639043A0319C30AC201C10124
:10052000C5010230AC00A901AA01FF30BB000030B8
:10053000BC00C00042017114F11471152330870012
:100540007030860001080139031DE42B0108803951
:100550000319E42B23080C3A031DBC2A4001490867
:100560000339031DB52A4308CA0049140C30C300DF
:10057000C201C101C501420140012C0842010339F9
:10058000013A0319E42B2608AD002508AE00AE0C95
:10059000AD0CAE0CAD0C0310AD0C233087002D0854
:1005A000903E86000108AF0026080739013EAE00E4
:1005B000AF0CAE0BD82A031C1A2B4001A60A031954
:1005C000A70A23308700703086000108023903191A
:1005D000F72A2608323C0318F72A811023308700B7
:1005E0007330860042012C091E002B098100420154
:1005F0002608AD002508AE00AE0CAD0CAE0CAD0C5F
:100600000310AD0C233087002D08903E8600260D88
:100610000E390B000110192B8110192B0111192B08
:100620008111192B0112192B8112192B0113192B6E
:10063000811371142330870070308600A21C2C2B8C
:10064000811C2C2B811023308700733086002509F4
:100650001E0026098100711402302502031CE42BC0
:10066000031D362B00302602031CE42B023025022A
:10067000031C9A2B031D402B40302602031C9A2B8F
:1006800002302502031CB22B031D4A2B80302602A8
:10069000031CB22B02302502031CB32B031D542B69
:1006A000A0302602031CB32B02302502031CCB2BE7
:1006B000031D5E2BC0302602031CCB2B023025020B
:1006C000031CD62B031D682BE0302602031CD62BFF
:1006D00002302506031CE42BFF302606031CE42B06
:1006E0002308073A031DE42B2330870020308600BF
:1006F000513040013B024201031CE42B010203186C
:10070000E42B14002B06031DE42B14002C06031D00
:10071000E42B4E01191A982B400115001500BB025D
:100720004201A701A8010830AA00F1154E011916CF
:100730004201E42B2330870070308600010808391D
:100740000319E42B811123308700753086002509B9
:100750001E0026098100233085008C3084005E262F
:100760007114E42BE42B40013C08FF3CBB00F11466
:1007700049080339031DBE2B4308CA0049140C3035
:10078000C300C201C101C501420123308500883088
:1007900084005E26E42B4001BC01C00171154201BA
:1007A000233085008A3084005E26E42B23308700C6
:1007B0007030860001080239031DE42B010804395A
:1007C0000319E42B01117114A001A1014E01191E9E
:1007D000E02C0F1EE02C40013919DE2C42012708C5
:1007E000031DFF2BF11DFA2BB201B101B10BF62B4A
:1007F000B20BF62BF11153309A00A70AE02C270810
:10080000013A031D072C6D309A00A70AE02C270837
:10081000023A031D0F2C61309A00A70AE02C27082A
:10082000033A031D172C73309A00A70AE02C2708FF
:10083000043A031D1F2C68309A00A70AE02C2708F1
:10084000053A031D292C3F309A00A70A3B30A80027
:10085000E02C2708063A031D3D2C2330870070301A
:100860008600A901011C2914811CA914011DA910CD
:1008700029089A00A807A70AE02C2708073A031DB1
:10088000472C2A089A00A807A70AB001E02C2708DD
:10089000083A031D502C2C089A00A807A70AE02C40
:1008A0002708093A031D592C2B089A00A807A70A04
:1008B000E02C27080A3A031DD72C2A08023A03190C
:1008C0006B2C2A08043A0319BE2C2A08083A03198B
:1008D000CD2CA70AD72C3008803A031D762C400176
:1008E0003B0842019A00A807B00AE02C3008813A80
:1008F000031D812C40013C0842019A00A807B00A60
:10090000E02C3008823A031D8C2C40012C08420157
:100910009A00A807B00AE02C3008833A031D972CF0
:100920004001390842019A00A807B00AE02C3008BB
:10093000843A031DA42C40010C2732084201CA004E
:100940009A00A807B00AE02C3008853A031DB12CA4
:10095000400133084201CB009A00A807B00AA70A59
:10096000E02C23308700703086003008860703189B
:10097000870A01099A00A807B00AE02C0130870015
:10098000503086003008860701089A00A807B00A90
:1009900030080A3A0319A70AE02C233087002030D8
:1009A000860001089A00A807B00AA70AE02C2708C9
:1009B0000B3A031DDE2CA809280A9A004E011912D1
:1009C000090040018B019801B030990067309A000E
:1009D000343092007030930081309400F101203067
:1009E000840085015030F0008001840AF00BF42C63
:1009F00020308400013085005030F0008001840AEE
:100A0000F00BFE2C23308500703084009F3087006F
:100A1000803086008030F00001088000840A860A59
:100A2000F00B0C2D0130A800FF30BB000030BC00E3
:100A300050019B019A0141309E0000001C084001BA
:100A4000A000B2003216B4004201AB0050011D08F4
:100A50004201AC004001A100B300B5002008A50090
:100A6000A10CA50CA10CA50C0310A50C233087002C
:100A70002508903E86000310200D0E390B00011052
:100A80004E2D81104E2D01114E2D81114E2D011232
:100A90004E2D81124E2D01134E2D811323308700D0
:100AA000903086006030A0000830A5000108A10049
:100AB000A10C03185E2DA60A0319A70AA50B582D31
:100AC000860AA00B542D2330870070308600011851
:100AD0006B2D811B2C14420102302C02031C772D3C
:100AE000031D762D40302B02031C772DF116440197
:100AF0008D018C019001013091008F0111308E0029
:100B000045018C01D3308D00013090008F0191019F
:100B100080308E00420120309E009F01A6309B0055
:100B20009C0190309D00460115309D00C0309C0016
:100B300080309E004B01F2309D009C0195309F005B
:100B400080309E004E018C01203096008F012030B5
:100B50009900900101309A007C011330A6001F30EB
:100B6000A7001330A8001330A9000230AA000830F3
:100B7000AB000030AC000030AD008E30A5008230FC
:100B8000A4007D0155308F00AA308F000F100E3069
:100B9000CB000D30C6000C30C5007E01B801C3018A
:100BA000CE013430B90003309F0015309C00163060
:100BB0009D0043019001910192018F0180308F00CF
:100BC000FF308E004F308D00283090004001C03043
:100BD0008B0023308700703086000630011CC30074
:100BE00023308700703086000830811FC3008E1BC1
:100BF0003915191213121316E4264F30A200A3015F
:100C0000DB26A2010130A300DB264F30A200A301A6
:100C1000D226A2010130A300D226EF267830FC268E
:100C20002630FC262430A0000130FC26A00B142E18
:100C3000E426EF267E30FC262630FC262430A00059
:100C40000130FC26A00B202EE42698315028AC263B
:100C500080318C192D2E8831602A98318329AC2659
:100C6000552E9A16AC26A7309400353092007E019E
:100C70003530B90040011C30A200FF30A300DB2654
:100C8000CD260130F3007308031D432E1C30A20053
:100C90000030A300DB26CD260130F3007308031DCE
:100CA0004E2E0C1C542E3B2E542E400139195C2E16
:100CB000711871268831DE2A8831972A1200031DA7
:100CC000642E000803190800013080020318080090
:100CD0001300013080020318080000301A001A00C7
:100CE000080071100808F200F001103088001F3071
:100CF0009B00803070079A0014309E00A4261E11BD
:100D0000233087007030700786001F309B008030D2
:100D100070079A0024309E0016009C003F309D0012
:100D20001A081F391F3A0319982EA4269A0A8C2EE6
:100D30009E12A4261E112030F00770087F3C031875
:100D4000752E7208880008008B1355309F00AA305A
:100D50009F009E148B1708000808F2007D010D30DB
:100D6000C6000C30C5007E0115309C0016309D0079
:100D700043019001910192018F0180308F00FF307B
:100D80008E004F308D0028309000720888000800D7
:100D90002530A200A301D22608002530A200A3011D
:100DA000DB260800EF267E30FC262208FC262308DE
:100DB000FC26E4260800EF267830FC262208FC26D4
:100DC0002308FC26E42608000808F20043019013DB
:100DD000101311151119EA2E72088800080008086E
:100DE000F2004E010F10430190131013111411184B
:100DF000F72E720888000800F0000808F2004E0183
:100E00000F108F10430170088C004E010F1C062F2D
:100E10000F107208880008008831EF218031080027
:10100000F000233C031C01340C083439A0000C19F7
:10101000A0150310A00C0310A00C0310A00C2008B6
:10102000043C031C013420080B001A2840286628C1
:101030008C28B22870080B000134233422341D346C
:1010400014340D34023407340534043403340634C4
:101050000F3411341534123410340A34093408347E
:101060000B340C340E34133416341734183419344A
:101070001A341B341C342034213424341F341E34DD
:1010800070080B0004340334023401340534063490
:1010900007340D34083409340A340C340B340E345C
:1010A0000F3410341134123413341434173416340A
:1010B000183419341A341B341C3415341D342034BC
:1010C00021342234233424341F341E3470080B009E
:1010D00001340234053404340334063407340B3449
:1010E000183413340E34083409340A340C340D34F3
:1010F0001134153416341734143410340F341234B8
:1011000019341A341B341C341D3420342134223455
:10111000233424341F341E3470080B00013402348D
:1011200003340434053409340A34063407340834EB
:101130000B340D340C340E3410340F341434153495
:1011400013341234163417341834113419341A3451
:101150001D341C341B3420342134223423342434F1
:101160001F341E3470080B00033404340534063475
:10117000073409340A340B340C340D34113413346D
:1011800014341534173419341A341C3421342334EC
:10119000223420341D341B341834163412341034E5
:1011A0000F340E3408340234013424341F341E3416
:1011B000F000233C031C01340C083439A0000C1946
:1011C000A0150310A00C0310A00C0310A00C200805
:1011D000043C031C013420080B00F22818293E2986
:1011E00064298A2970080B001C3414341534163411
:1011F0001034113412340C340D340E3408340934E4
:101200000A34043405340634033407340B340F3401
:10121000133417340234013422341F341E341D3485
:10122000193418341B341A34203421342334243430
:1012300070080B001C341434153416341034113477
:1012400012340C340D340E34083409340A340434A6
:1012500005340634033407340B340F341334173495
:1012600022342334013402342434213420341D3414
:101270001E341F34183419341A341B3470080B0010
:101280001C341434153416341034113412340C3424
:101290000D340E34083409340A3404340534063469
:1012A000033407340B340F3413341734013402344D
:1012B0002434223423342134183419341A341F349A
:1012C0001E341B341D34203470080B001C341434BD
:1012D000153416341034113412340C340D340E34E9
:1012E000083409340A34043405340634033407342A
:1012F0000B340F34133417342234013402342434C1
:101300002334213420341D341E341F341B3419344B
:1013100018341A3470080B001C3414341534163485
:101320001034113412340C340D340E3408340934B2
:101330000A34043405340634033407340B340F34D0
:101340001334173423342434013402342234213446
:1013500020341D341F341E341B34193418341A340D
:101360008031EF26883108008031FC268831080062
:101370008031E426883108008031CD26883108008C
:101380008031C826883108008031D2268831080093
:101390008031DB268831080080315E2688310800E4
:1013A000F0001200031DDB291200031DDC290008D8
:1013B00003190800DC2912007008800203180800D5
:1013C000130001308002031808001300013080026E
:1013D0000318080000301A001A001A000800103024
:1013E000B600F4290830B6007010321870143219A3
:1013F000F009321BF009B21BF00903107018031436
:10140000B50CB40CB30CB20CB60BF42932080800BE
:101410000B0001340234183419341A341B341D34CF
:101420001E341F34203421342234233424348134B4
:1014300082348334843485348634873488348934E0
:101440008A348B348C348D348E348F349034913490
:101450009234933494349534963497349834993440
:101460009A349B349C349D34A034A134A234A334E8
:101470002C0803390B001F341F340F340434C3000D
:10148000233087007030860001080639043A0319BA
:10149000C30AC201C101C5014910C9100800C30037
:1014A000233087007030860001080639043A03199A
:1014B000C30AC201C101C5014910C910491408007D
:1014C000A4012408D820A200FF30A300C821BC2119
:1014D0000230F3007308031D6A2A2408D820A200F2
:1014E0000030A300C821BC21A40A2408233C03180F
:1014F000612ABC21A40124080020A200FF30A3001F
:10150000C421C0210230F3007308031D842A24087B
:101510000020A2000030A300C421A40A2408233C18
:1015200003187B2AC0218C1D602A80312D2E3D0896
:10153000031DDE2AF2210F39C3000C3C031C9A2A3A
:10154000C201C101C501F1147115FF30BB00F221C8
:10155000203C0318BB01FF30BC00F221E03C031823
:10156000BC0123308700703086008115F221103CC9
:10157000031881110110F221083C0318011401170E
:10158000F221103C0318011301168116F221103CC0
:10159000031CD62A0112233087008E308600FF30CC
:1015A0001E008100F221803C031C81012C08FC39C3
:1015B000AC00F2210339AC04FF30BD009831C829DA
:1015C0007308031D0B2B2C08033903190B2BAD0AD1
:1015D000F30A2D08013A0319052B2D08023A0319C5
:1015E000FE2A2D08033A0319052B2D08043A031986
:1015F000FE2A38222D020318AD010B2B1E30A2004B
:101600000030A300C421C0210B2B1E30A200FF30EC
:10161000A300C421C0212330870070308600010858
:101620000839031D302B2C154C08031D392B0130B4
:10163000CC00B91D222BB9150830CB07031C292B70
:10164000FF30CB00B9110830CB020318292BCB0196
:101650001B2B2430A2004B08A300C421C021392B2E
:101660002C1D392B2430A2000030A300C421C0213E
:101670002C112330870070308600811E6F2B011AD9
:101680006F2B233087008E3086000109031D4C2B01
:101690001400010903195B2B391C0D2C3910B10101
:1016A000AE01B0012C1F572BAF012C13F72BFF30CD
:1016B000AF002C17F72BB101AC1E672BAE0A2E081A
:1016C000AE00AF00B0002E090319AC126E2BAE03B2
:1016D0002E08AE00AF00B0000319AC16F72B233074
:1016E000870070308600011C7B2B7308031D0D2CB6
:1016F0000130F3008B2B2330870070308600011FF0
:101700008B2B0130BE020030BF3B03180D2CFF3085
:10171000BE000230BF004D08031D932BB10A3109F2
:101720000319CD0AF72B4D08013A031D9C2BB10379
:1017300031080319CD0AF72B4D08023A031DA52BDA
:10174000AE0A2E090319CD0AF72B4D08033A031DE3
:10175000AE2BAE032E080319CD0AF72B4D08043A21
:10176000031DB72BB10A31090319CD0AF72B4D0818
:10177000053A031DC02BB10331080319CD0AF72B1D
:101780004D08063A031DC92BAF0A2F090319CD0ACC
:10179000F72B4D08073A031DD22BAF032F0803196F
:1017A000CD0AF72B4D08083A031DDB2BB10A31098E
:1017B0000319CD0AF72B4D08093A031DE42BB10399
:1017C00031080319CD0AF72B4D080A3A031DED2BFA
:1017D000B00A30090319CD0AF72B4D080B3A031D47
:1017E000F62BB0033008031DF72BCD0ACD01B02135
:1017F0007830B4210330B4210530A0003108B42181
:101800002E08B4212F08B4213008B421A00BFE2BE0
:101810003108B421B821BC21C021F22137080319B5
:10182000482C2330870070308600011F302C0108BF
:101830003039203A031D2D2C233087008E3086004E
:101840000109031D2A2C14000109031D2A2C103044
:10185000B800322CFF30B800322CFF30B800322CE8
:101860000130B800B71F3F2CB713B0217E30B42130
:101870003708B4210030B421B821B701482CB02179
:101880007830B4213708B4210030B421B821B70131
:1018900023308700703086000118702CB80B702C34
:1018A000F2213F39A1002E3C031C502C21080822B4
:1018B000A100B700A11F662CA113B0217E30B42176
:1018C0002108B421F221B421B8216E2CB021783046
:1018D000B4212108B421F221B421B821BC21C021B6
:1018E000F11C792C1F30A2000030A300C421C021BC
:1018F000F110711D822C1C30A2000030A300C82101
:10190000BC2171112B080319EB2CA000AB01391974
:10191000962C23308700703086000108A100013921
:10192000031DEB2C010880390319C02C51303B02F8
:101930000318AB2CAC19A42C1F30A200FF30A3005D
:10194000C421C021AC15AB2C1F30A2000030A30075
:10195000C421C021AC1180303C02031CC02CB9183A
:10196000B92C1C30A200FF30A300C821BC21B9143F
:10197000C02C1C30A2000030A300C821BC21B9102B
:101980003919A52DA119CA2C233085008330840074
:101990002008D0212C080339013A031DD52C23300F
:1019A00085007A3084002008D0212C080339023ABF
:1019B000031DE02C233085007D3084002008D021D9
:1019C0002C080339033A031DEB2C233085008030AB
:1019D00084002008D0212330870070308600010861
:1019E0000139031DA72D010880390319A52D2908E8
:1019F000031D142D2A08031D142D2C080339033A46
:101A0000031D0A2D2C105830AA000230A900043002
:101A10003F22142D2C080339023A031D142DAC105B
:101A20002C14711406303F223D08031D7C2D2C0818
:101A30000339013A03197C2D2D30BD002330870076
:101A4000703086008118392D011D392D2C0803397D
:101A5000033A031D322D0630BB02031C4C2D063009
:101A6000C0076F2D0230BB02031C4C2D0230C00793
:101A70006F2D2C080339033A031D452D0430BB029A
:101A8000031C4C2D0430C0076F2D0130BB02031C1A
:101A90004C2D0130C0076F2DF11A6F2DBB01233083
:101AA00087007030860081131E30A2000030A30032
:101AB000C4211F30A2000030A300C421C0211C306B
:101AC000A2000030A300C821BC212C10AC10233090
:101AD000850086308400CC21711408303F22033009
:101AE0004002031C7C2D0330C0020130BC07031CE4
:101AF0006F2DFF30BC006F2D3A080319852DBA03F6
:101B00008C19A42D4030BA00A42D8C19A42D40307E
:101B1000BA000330AC042C30AA000130A9002330F5
:101B20008500773084000130D02102303F2202301E
:101B3000CA000A304F224E01191AA42D4201A701F2
:101B4000A801AA014E01191640018031552E3A080C
:101B50000319B02DBA038C19B92D4030BA00B92D34
:101B60008C19B92D4030BA004914CA010130C300A4
:061B7000C5018031552E75
:102000008831F221903108004201233087002030CE
:1020100086000930860701308500503084000A3080
:10202000B30017001A00B30B11289F3085007030E1
:10203000840001308700403086000A30B30012006F
:102040001E00B30B1F28B301013087004030053E4E
:1020500086000108B400B801B501B901F030860569
:10206000350886070108B8070318B90A063086073D
:102070001700B8070318B90A380881003908B800F2
:10208000B50A3508043A031D2D28F03086050430C2
:1020900086070108B8073408B807053086073808EE
:1020A0008100F0308605053086073308810615006B
:1020B000B4000430B500F0308605350886070310FB
:1020C000810D0310810D0310810D86031600B800E9
:1020D0000530B6000310B80CB60B6A283808810426
:1020E000053086070108B8000530860238088106E9
:1020F000B50B5B28F03086050310810D0310810DB0
:102100000310810D0530B6000310B40CB60B842803
:1021100034088104053086070108B800F0308605D0
:1021200038088106B30A33081A3A031D24281930E7
:10213000B3000130850050308400B501F0308605D1
:102140003508053E86070108B800053086023808C4
:102150008106F03084053508053E84070008BC0080
:10216000053084023C088006B50A3508053A031D8F
:102170009E28F03086050108B400F0308405000880
:10218000B700B501F0308605350886070310810CCD
:102190000310810C0310810C860A1700B80005306B
:1021A000B6000310B80DB60BD12838088104F03002
:1021B0008405350884070310800C0310800C03107D
:1021C000800C840A1300B8000530B6000310B80D67
:1021D000B60BE62838088004B50A3508043A031D12
:1021E000C228F03086050530860786030310810C6F
:1021F0000310810C0310810C0530B6000310B40DE0
:10220000B60BFE2834088104F030840505308407BD
:1022100084030310800C0310800C0310800C053025
:10222000B6000310B70DB60B112937088004F03043
:1022300086050530860733088106B501F030840530
:102240003508053E8407F030860535088607010805
:102250008006B50A3508053A031D1E29B801B901E3
:10226000BA01BB01BC01BD01BE01BF01B501F03027
:1022700086053508053E86070108B807031C4A296C
:102280000130B907031C4A290130BA07031C4A2947
:102290000130BB07053086020108B80203185A292D
:1022A0000130B90203185A290130BA0203185A2919
:1022B0000130BB0205308607380881003908B800B4
:1022C0003A08B9003B08BA00F03084053508053EED
:1022D00084070008BC07031C77290130BD07031CD5
:1022E00077290130BE07031C77290130BF0705306D
:1022F00084020008BC02031887290130BD020318BC
:1023000087290130BE02031887290130BF0205303A
:1023100084073C0880003D08BC003E08BD003F0823
:10232000BE00B50A3508053A031D3729F030860589
:1023300005308607860786030108B400F03084055F
:1023400005308407840784030008B7000430B50013
:10235000F03086053508053E8607860316008100A5
:10236000F03084053508053E8407840312008000A0
:10237000B50BA829F03086050530860734088100A2
:10238000F03084050530840737088000B303330834
:10239000FF3A031D99284E01191A482B4201F030CB
:1023A000840512002C06031D482B12002B06031D6A
:1023B000482B12004A06031D482B12004B06031D32
:1023C000482BF03084050A30B300BC011200BC0772
:1023D000B30BE6293C08031D482B400126084201A7
:1023E000BC00400127084201BD0023308700713046
:1023F00086000109BF00860A0109BE003E08BC0232
:102400003F08BD3B031C482BF03084050430840793
:102410001000BC021100BD3B031C482B1000BE077E
:102420001100BF3D3E091F003F091E007114CA0183
:10243000CB09F0308405023084071200B800120086
:10244000B9001200BA001200BB001200BC0012005A
:10245000BD001200BE00F0308405023084073C0845
:102460001A003D081A003E081A003A081A003B08F4
:102470001A00400100204201BF0038060319BF0ABC
:102480003F081A00400100204201BF00390603192D
:10249000BF0A3F081A00A801F03084050930B300D4
:1024A0001200A807B30B502AA809280A800001309F
:1024B0008500503084000130870040308600B30131
:1024C000F0308405053084070008B700F030860539
:1024D000053086070108B400BC01BD01B801B9018F
:1024E000B501F0308405350884071200BC070318D5
:1024F000BD0A053084071300BC070318BD0A3C0859
:102500008000F030860535088607010880063D0802
:10251000BC00BD01F0308605350886071600B807F7
:102520000318B90A053086071700B8070318B90A57
:10253000380881003908B800B901B50A3508043AED
:10254000031D712AF03084050530840784030008D8
:10255000BC073708BC07053084073C088000F03012
:102560008605053086078603010880060108B8073E
:102570003408B8070530860738088100F030860532
:102580000530860733088106F0308405053084075E
:1025900084030008B70086030108B4000430B500C6
:1025A000F0308405350884070310800D0310800D7A
:1025B0000310800D1100BC000530B6000310BC0CE8
:1025C000B60BDE2A840A3C08800405308407000824
:1025D000BC00053084023C088006F03086053508D2
:1025E00086070310810D0310810D0310810D150066
:1025F000B8000530B6000310B80CB60BFB2A860AEB
:1026000038088104053086070108B80005308602C5
:1026100038088106B50BD02AF03084050310800DF0
:102620000310800D0310800D0530B6000310B70CA9
:10263000B60B162B37088004053084070008BC0051
:10264000053084023C088006F03086050310810DB9
:102650000310810D0310810D0530B6000310B40C7A
:10266000B60B2E2B34088104053086070108B8000C
:102670000530860238088106B30A33081A3A031D6A
:10268000602AA701A8010430AA00F1154E0119160D
:0626900042018031BE2969
:103000008831F221983108008031AC2698310800CF
:103010000808F2007D011030C6007E011530A200C4
:103020001630A10043019001910192018F01FF3000
:103030008E00C0308F0007308D002A30900072085B
:1030400088000800F0000808F2004E010F108F10F1
:10305000430170088C004E010F1C2C280F104301F7
:103060000C08F0007208880070080800A3001A120B
:103070001A1320302220023022201A171A13220895
:103080000739B03822201A171A1323080F392220C3
:103090001A171A13230E0F39103822201A17080096
:1030A00008209A150130F3007308031D54281A12E2
:1030B0001A13AE3022201A171A13403022201A1782
:1030C0001A13813022202F3022201A171A13A03011
:1030D00022201A171A13A43022201A171A13A63006
:1030E00022201A171A13A8302220273022201A175C
:1030F0001A13C03022201A171A13D330222000309E
:1031000022201A171A13D5302220803022201A17B5
:103110001A13D9302220223022201A171A13DA303B
:103120002220123022201A171A13AD3022203030FC
:1031300022201A171A13DB302220203022201A17DF
:103140001A138D302220143022201A171A13AF3090
:1031500022201A171A1320302220003022201A179A
:103160001A132230222000302220073022201A1782
:103170001A1321302220003022207F3022201A17FB
:103180001A161A130430A100A00100302220A00B4F
:10319000C528A10BC5281A170030A2001C30362004
:1031A0001A161A13FF3022204630A00001302220C8
:1031B000A00BD628FF3022201A170130A2001C30A5
:1031C00036201A161A13FF3022201B30A0000030C0
:1031D0002220A00BE72890302220903022201830A7
:1031E0002220E83022200830222010302220103007
:1031F000222020302220C03022202230A0000030A7
:103200002220A00BFF28FF3022201A170230A20034
:103210001C3036201A161A13FF3022201530A00059
:1032200000302220A00B102938302220CE3022205E
:103230001030222010302220163022200830222088
:1032400008302220643022206330222000302220E7
:1032500000302220663022206630222000302220DA
:1032600000302220C33022203C3022202030A00019
:1032700000302220A00B3829FF3022201A170330FB
:10328000A2001C3036201A161A13FF3022201730E5
:10329000A00000302220A00B49290130222002305A
:1032A0002220023022200430222004302220083044
:1032B000222008302220083022200830222004302A
:1032C000222004302220023022200130222022300D
:1032D000A00000302220A00B6929FF3022201A17FD
:1032E0000430A2001C3036201A161A13FF30222098
:1032F0004630A00080302220A00B7A29FF30222007
:103300001A178031272E08209A12AB302220FF3066
:103310002220FF302220FF302220FF302220153AC9
:10332000031DC6299A169A129F302220FF302220B0
:10333000013A031DC629FF302220403A031DC62949
:10334000FF302220163A031DC6299A169A1203301E
:103350002220003022200030222000302220FF30A6
:103360002220FE3A031DC629FF302220ED3A031D1C
:10337000C629FF302220B03A031DC629FF30222083
:10338000B03A031DC6299A1680312F2E8031312E76
:1033900040014208031D552A08204508031D062A3E
:1033A000491CD5294910C914DA29C91CDA29C910C0
:1033B0004A08C30043080D3C031CC3011030C6007B
:1033C000C701C8014308A0000319ED294030C60712
:1033D0000030C73DC83DA00BE62900203C39C60798
:1033E0000030C73DC83D9A120330222048082220F1
:1033F0004708222046082220FF302220C600222033
:10340000C7002220C8002220C5009A16A101223040
:103410008500D03084009A120330222048082220F0
:1034200047082220460822204830A00022201A0007
:10343000A00B162A9A164830C6070030C73DC83D73
:1034400022308500D03084002108A2001C303620B4
:103450001A161A134830A00012002220A00B2C2AA2
:103460001A17A10A2108053A031D072A9A120330E8
:103470002220480822204708222046082220FF3028
:103480002220C4009A160130C6070030C73DC83D4F
:10349000C50344010E108D018C014001C101440897
:1034A000C20044010E14400104208831E02A50007B
:1034B0006500740065007200200053006800610020
:1034C000620069006E006F002000320039004D007C
:1034D00061007200320030003200320020006300D0
:1034E0006F0064006500200066006F00720020001D
:1034F000740079006D006B007200730020004300BF
:103500007900700068006500720063006F006E0053
:1035100020003200300032003000200062006100E4
:103520006400670065002000560035002000770029
:10353000770077002E007700690072006500320086
:1035400077006900720065002E006F00720067004E
:02355000210058
:103EE00001000200030004000500F000E000D00023
:103EF000C000A000FF00FF00FF00FF00FF00FF0068
:103F0000FF00FF00FF00FF00FF00FF00FF00FF00B9
:103F1000FF00FF00FF00FF00FF00FF00FF00FF00A9
:103F2000FF00FF00FF00FF00FF00FF00FF00FF0099
:103F3000FF00FF00FF00FF00FF00FF00FF00FF0089
:103F4000FF00FF00FF00FF00FF00FF00FF00FF0079
:103F5000FF00FF00FF00FF00FF00FF00FF00FF0069
:103F6000FF00FF00FF00FF00FF00FF00FF00FF0059
:103F7000FF00FF00FF00FF00FF00FF00FF00FF0049
:103F8000FF00FF00FF00FF00FF00FF00FF00FF0039
:103F9000FF00FF00FF00FF00FF00FF00FF00FF0029
:103FA000FF00FF00FF00FF00FF00FF00FF00FF0019
:103FB000FF00FF00FF00FF00FF00FF00FF00FF0009
:103FC000FF00FF00FF00FF00FF00FF00FF00FF00F9
:103FD000FF00FF00FF00FF00FF00FF00FF00FF00E9
:103FE000FF00FF00FF00FF00FF00FF00FF00FF00D9
:103FF000FF00FF00FF00FF00FF00FF00FF00FF00C9
:020000040001F9
:020000000000FE
:02000E008C3F25
:02001000DE37D9
:020012009F3F0E
:02001400EF1FDC
:02001600FE3FAB
:00000001FF
