:020000040000FA
:020000000528D1
:040002000034003492
:08000800090088018B010030A2
:10001000980020309A001330920000309400203075
:10002000840085015030F0008001840AF00B142810
:10003000053088008C01D3308D00013090008F0195
:10004000910180308E000630880015309D00C03050
:100050009C0080309E000B308800F2309D009C0197
:1000600096309F0080309E001430880020309E0023
:100070009F01A6309B009C0180309D003C30880091
:100080001330A6002130A7001330A8001330A900B8
:100090000230AA000830AB000030AC000030AD00E8
:1000A0000E30A5008230A4003D30880055308F000E
:1000B000AA308F000F100430CD001130CB003E303D
:1000C0008800B801CE011330B9000330950011301B
:1000D000A4003D30880055308F00AA308F000F14E7
:1000E0008801C0308B000C1C78281A109A107328D5
:1000F0001A148C1873280E3088008C1E86288C12D7
:1001000088019A1C85289A1086289A1488010C1A4E
:1001100073289A145330A4206D30A4206130A42099
:100120007330A4206830A4203F30A4200130A420E4
:100130000030A4200230A420FE30A420C430A4202B
:10014000AB200C187328892854019A004E010F1F08
:10015000A72888010800AF20A00BAB280800B32017
:10016000A10BAF2808002030A200A20BB528080080
:1001700050006500740065007200200053006800A4
:100180006100620069006E006F00200032003300E1
:100190004A0061006E003200300032003200200060
:1001A00063006F0064006500200066006F0072004D
:1001B0002000740079006D006B0072007300200055
:1001C00043007900700068006500720063006F00F2
:1001D0006E00200032003000320030002000490064
:1001E000520062006C0061007300740065007200D0
:1001F00020005600300020007700770077002E00A6
:1002000077006900720065003200770069007200B3
:0C02100065002E006F00720067002100E6
:020000040001F9
:02000E008C3F25
:02001000DC37DB
:020012009F3F0E
:02001400FF1FCC
:02001600FE3FAB
:00000001FF
