:020000040000FA
:020000004D2889
:040002000034003492
:080008000E3088008F1E212834
:10001000023088001D1920289D1C11281D121D1654
:100020002128720A730603192028213087007208DC
:10003000860019088100F20A0E308800191721285D
:1000400019080E3088008F1F3628143088001D1DB7
:100050002B28190836289D1C30281D121D163628FD
:100060001908F1000230880071089A000E308800EB
:10007000191F4C280F1F4C2814308800213087008E
:100080007308860001089A00F30A73087206031DBC
:100090004C280E3088001913090088018B0120308C
:1000A000980020309A0010309200023094002030E6
:1000B000840085015030F0008001840AF00B5C2838
:1000C000F201F3010230880020309E0008309F00CA
:1000D00001309C00A0309B0090309D0005308800CE
:1000E0008C01D3308D00013090008F019101803060
:1000F0008E000630880015309D00C0309C00803096
:100100009E000E308800A03099008F0114308800C6
:1001100020309E009F01A6309B009C0190309D00E6
:100120003C3088001330A6002130A7001330A8000F
:100130001330A9000230AA000830AB000030AC0038
:100140000030AD008E30A5008230A4003D30880024
:1001500055308F00AA308F000F100430CD001130C1
:10016000CB003E308800B801CE010330950011303D
:10017000A4000F30A0000F30A5003D30880055309E
:100180008F00AA308F000F148801C0308B00C72861
:100190005000650074006500720020005300680084
:1001A0006100620069006E006F00200031003100C4
:1001B0004A0061006E003200300032003000200042
:1001C00063006F0064006500200066006F0072002D
:1001D0002000740079006D006B0072007300200035
:1001E00043007900700068006500720063006F00D2
:1001F0006E00200032003000320030002000490044
:1002000052006800610063006B002000560030005F
:1002100020007700770077002E00770069007200D9
:100220006500320077006900720065002E006F00E3
:06023000720067002100CE
:020000040001F9
:02000E008C3F25
:02001000DC37DB
:020012009F3F0E
:02001400FF1FCC
:02001600FE3FAB
:00000001FF
