:020000040000FA
:02000000A52831
:040002000034003492
:080008000E3088000C1E0E28CA
:100010003E308800BF010E3088000C120E30880080
:100020008C1E16288C12F108031DF1030E30880077
:10003000191EA4280F1EA4288801A30B2428A3019D
:100040000E3088001912A42823080B3A031D2E280D
:100050000230880053309A008801A42823080A3A05
:10006000031D3828023088006D309A008801A428CA
:100070002308093A031D42280230880061309A00A3
:100080008801A4282308083A031D4C280230880060
:1000900073309A008801A4282308073A031D5628C4
:1000A0000230880068309A008801A4282308063AA4
:1000B000031D6028023088003F309A008801A42880
:1000C0002308053A031D6A280230880000309A0090
:1000D0008801A4282308043A031D742802308800EC
:1000E00000309A008801A4282308033A031D8128C0
:1000F0008701223086000230880001089A008801BA
:10010000A4282308023A031D8E2887012130860087
:100110000230880001089A008801A4282308013AC7
:10012000031D1F283B30A4002208A4072108A407B0
:100130000030A407A409A40A8701243086000230F5
:10014000880001089A008801090088018B0120308D
:100150009800083092002030840085015030F00073
:100160008001840AF00BB0280230880020309E0005
:100170009F01A6309B009C0190309D0005308800B7
:100180008C01D3308D00013090008F0191018030BF
:100190008E000630880015309D00C0309C008030F5
:1001A0009E000B308800F2309D009C0197309F002C
:1001B00080309E000E308800203096008C01103078
:1001C00088009B019A0141309E0000001C088801B4
:1001D000A100103088001D088801A2003C30880072
:1001E0001330A6001F30A7001330A8001330A90059
:1001F0000230AA000830AB000030AC000030AD0087
:100200008E30A5008230A4003D30880055308F002C
:10021000AA308F000F103E308800B80103309500DF
:100220000830BD00BE01BF013D30880055308F0051
:10023000AA308F000F148801C0308B003E29181699
:100240003E308800BE01BF010E3088008C011030A6
:1002500096006300203096008C01880118120C3043
:10026000A3000E308800191688012308031D3529C4
:100270000C30A3000E308800191688018C1D3E2911
:100280000F30F1000F308C1DF1007108031D422961
:100290001F295000650074006500720020005300A3
:1002A00068006100620069006E006F00200030008D
:1002B00036004D0061007200320030003200320022
:1002C000200063006F0064006500200066006F007E
:1002D00072002000740079006D006B0072007300E2
:1002E0002000430079007000680065007200630020
:1002F0006F006E002000320030003200300020001D
:100300004900520062007500740074006F006E00B6
:1003100020005600310020007700770077002E0083
:100320007700690072006500320077006900720092
:0C03300065002E006F00720067002100C5
:020000040001F9
:02000000C0023C
:02000E008C3F25
:02001000DC37DB
:020012009F3F0E
:02001400FF1FCC
:02001600FE3FAB
:00000001FF
